202508070010000300000000000000012654                8000000000030718251040AMV-TIENDA ONLINE S.A.        000000016755644000000000000000000000000000000000000000000000000000000000000000000000000000000000000000000000000000000000PES00010000001 00000000290800400000000000000000000000000                              000000000000000
202511210010001400000000000000113323                8000000000030711069360BIDCOM SRL                    000000015144800000000000000000000000000000000000000000000000000000000000000000000000000000000000000000000000000000000000PES00010000001 00000000262843600000000000000000000000000                              000000000000000
202511210010010100000000000000112854                8000000000030715898329GREEN DECO SRL                000000051154400000000000000000000000000000000000000000000000000000000000000000000000000000000000000000000000000000000000PES00010000001 00000000887803600000000000000000000000000                              000000000000000
202512260010000800000000000000002424                8000000000020956705089GARCIA ALVAREZ LEONARDO ERNEST000000008371356000000000000000000000000000000000000000000000000000000000000000000000000000000000000000000000000000000000PES00010000001 00000000145288000000000000000000000000000                              000000000000000
202601060390000600000000000006261192                8000000000030574816870AMERICAN EXPRESS ARGENTINA S. 000000011704536000000000000000000000000000000000000000000000000000000000000000000000000000000000000000000000000001883657PES00010000001 00000000170445000000000000000000000000000                              000000000000000
202601150010000200000000000000003853                8000000000030718133412FULL HOUSE TIENDA S.R.L.      000000024465000000000000000000000000000000000000000000000000000000000000000000000000000000000000000000000000000000000000PES00010000001 00000000424599200000000000000000000000000                              000000000000000
202601220010000600000000000000002749                8000000000030716552671GRUPO VINDUR S. A.            000000249999900000000000000000000000000000000000000000000000000000000000000000000000000000000000000000000000000000000000PES00010000001 00000002375564700000000000000000000000000                              000000000000000
202601230010000800000000000000043645                8000000000030677883614ELITRONIC ELITE ARGENTINA SA  000000193572722000000000000000000000000000000000000000000000000000000000000000000000000000000000000000000000000000000000PES00010000001 00000001839378800000000000000000000000000                              000000000000000
202601270110000100000000000000000041                8000000000027360198958VILTE ROMINA ELIZABETH        000000007477280000000000000000000000000000000000000000000000000000000000000000000000000000000000000000000000000000000000PES00010000000 00000000000000000000000000000000000000000                              000000000000000
202602030390000600000000000006777642                8000000000030574816870AMERICAN EXPRESS ARGENTINA S. 000000000000144000000000000000000000000000000000000000000000000000000000000000000000000000000000000000000000000000000004PES00010000001 00000000000002400000000000000000000000000                              000000000000000
202602050010000200000000000000005538                8000000000020165439849PINTO RUBEN DANIEL            000000006050000000000000000000000000000000000000000000000000000000000000000000000000000000000000000000000000000000000000PES00010000001 00000000105000000000000000000000000000000                              000000000000000
202602100110000200000000000000000087                8000000000027410156771CREIMAN IVANA ESTEFANIA       000000020964315000000000000000000000000000000000000000000000000000000000000000000000000000000000000000000000000000000000PES00010000000 00000000000000000000000000000000000000000                              000000000000000
202602120110000100000000000000000007                8000000000020359655380CARREŃO FEDERICO NICOLAS      000000032377758000000000000000000000000000000000000000000000000000000000000000000000000000000000000000000000000000000000PES00010000000 00000000000000000000000000000000000000000                              000000000000000
202602180110000100000000000000006055                8000000000020396897661CANEVARI GALO RAMIRO MANUEL   000000046387755000000000000000000000000000000000000000000000000000000000000000000000000000000000000000000000000000000000PES00010000000 00000000000000000000000000000000000000000                              000000000000000
202602200110000100000000000000000017                8000000000020287702923PONCE RAMOS JUAN CARLOS       000000013411500000000000000000000000000000000000000000000000000000000000000000000000000000000000000000000000000000000000PES00010000000 00000000000000000000000000000000000000000                              000000000000000
202602200110000100000000000000000018                8000000000020287702923PONCE RAMOS JUAN CARLOS       000000034483700000000000000000000000000000000000000000000000000000000000000000000000000000000000000000000000000000000000PES00010000000 00000000000000000000000000000000000000000                              000000000000000
202602230010003600000000000000166473                8000000000033677414419MULTIPOINT SA                 000000036999897000000000000000000000000000000000000000000000000000000000000000000000000000000000000000000000000000000000PES00010000001 00000000351582700000000000000000000000000                              000000000000000
202602240010000100000000000000000067                8000000000033716733209SALMARDIN SAS                 000000103779991000000000000000000000000000000000000000000000000000000000000000000000000000000000000000000000000000000000PES00010000001 00000001801140300000000000000000000000000                              000000000000000
202602250110000100000000000000000021                8000000000027175521726CASSE NORMA ESTER             000000069759440000000000000000000000000000000000000000000000000000000000000000000000000000000000000000000000000000000000PES00010000000 00000000000000000000000000000000000000000                              000000000000000
202602250010000200000000000000004637                8000000000030715445375GRUPO BA S.R.L.               000000032461104000000000000000000000000000000000000000000000000000000000000000000000000000000000000000000000000000000000PES00010000001 00000000563374500000000000000000000000000                              000000000000000
202602250110000200000000000000000011                8000000000027333931872PLATINO NATALIA ALEJANDRA     000000090385200000000000000000000000000000000000000000000000000000000000000000000000000000000000000000000000000000000000PES00010000000 00000000000000000000000000000000000000000                              000000000000000
202602260110000100000000000000000011                8000000000020355479278LIZARRAGA SILVERIO EMMANUEL   000000057816256000000000000000000000000000000000000000000000000000000000000000000000000000000000000000000000000000000000PES00010000000 00000000000000000000000000000000000000000                              000000000000000
202602260110000100000000000000000026                8000000000020408232008CORTEZ MAXIMILIANO GABRIEL    000000019444200000000000000000000000000000000000000000000000000000000000000000000000000000000000000000000000000000000000PES00010000000 00000000000000000000000000000000000000000                              000000000000000
202602260110000200000000000000000026                8000000000020331303179LAZZA NICOLAS ALFREDO         000000048264725000000000000000000000000000000000000000000000000000000000000000000000000000000000000000000000000000000000PES00010000000 00000000000000000000000000000000000000000                              000000000000000
202602260110000200000000000000000059                8000000000020144967497HOROT JORGE LUIS              000000162328508000000000000000000000000000000000000000000000000000000000000000000000000000000000000000000000000000000000PES00010000000 00000000000000000000000000000000000000000                              000000000000000
202602270110000200000000000000003123                8000000000020274929775ZEBALLO CRISTIAN ALFREDO      000000036188357000000000000000000000000000000000000000000000000000000000000000000000000000000000000000000000000000000000PES00010000000 00000000000000000000000000000000000000000                              000000000000000
202602280110000100000000000000000025                8000000000023324332804KONCIMAL DAIANA ABIGAIL       000000089293800000000000000000000000000000000000000000000000000000000000000000000000000000000000000000000000000000000000PES00010000000 00000000000000000000000000000000000000000                              000000000000000
202602280110000100000000000000000111                8000000000020368662934ARTAZA ALAN MAURICIO          000000145719718000000000000000000000000000000000000000000000000000000000000000000000000000000000000000000000000000000000PES00010000000 00000000000000000000000000000000000000000                              000000000000000
202602280010000700000000000000062874                8000000000020372347296GHERTNER SEBASTIAN            000000022959100000000000000000000000000000000000000000000000000000000000000000000000000000000000000000000000000000000000PES00010000001 00000000398463700000000000000000000000000                              000000000000000
202603010110000100000000000000000011                8000000000027235809880CARDOSO PAOLA ALEJANDRA       000000033771153000000000000000000000000000000000000000000000000000000000000000000000000000000000000000000000000000000000PES00010000000 00000000000000000000000000000000000000000                              000000000000000
202603010110000100000000000000000017                8000000000020261443962ALBARRAN MARCELO ARIEL        000000087070980000000000000000000000000000000000000000000000000000000000000000000000000000000000000000000000000000000000PES00010000000 00000000000000000000000000000000000000000                              000000000000000
202603010010000200000000000000000367                8000000000030716860015UP                            000000235950000000000000000000000000000000000000000000000000000000000000000000000000000000000000000000000000000000000000PES00010000001 00000004095000000000000000000000000000000                              000000000000000
202603010110000200000000000000000119                8000000000020345948083PALAVECINO RICARDO CLAUDIO FAB000000131925943000000000000000000000000000000000000000000000000000000000000000000000000000000000000000000000000000000000PES00010000000 00000000000000000000000000000000000000000                              000000000000000
202603010110000500000000000000000022                8000000000020414106782LENIS TOMAS AGUSTIN           000000065114371000000000000000000000000000000000000000000000000000000000000000000000000000000000000000000000000000000000PES00010000000 00000000000000000000000000000000000000000                              000000000000000
202603020110000100000000000000000001                8000000000020434274444SUAREZ ALVARO SAMUEL          000000027977582000000000000000000000000000000000000000000000000000000000000000000000000000000000000000000000000000000000PES00010000000 00000000000000000000000000000000000000000                              000000000000000
202603020110000100000000000000000003                8000000000027472827036ZUŃIGA GAJARDO VALENTINA AILEN000000058580595000000000000000000000000000000000000000000000000000000000000000000000000000000000000000000000000000000000PES00010000000 00000000000000000000000000000000000000000                              000000000000000
202603020110000100000000000000000013                8000000000020188204806ZORRILLA SANCHEZ FERMIN REINER000000045463232000000000000000000000000000000000000000000000000000000000000000000000000000000000000000000000000000000000PES00010000000 00000000000000000000000000000000000000000                              000000000000000
202603020110000100000000000000000018                8000000000020363533109VITOLO LEONARDO GABRIEL       000000057475400000000000000000000000000000000000000000000000000000000000000000000000000000000000000000000000000000000000PES00010000000 00000000000000000000000000000000000000000                              000000000000000
202603020110000100000000000000000019                8000000000027230463447FLORES MARIA MARCELA          000000524018246000000000000000000000000000000000000000000000000000000000000000000000000000000000000000000000000000000000PES00010000000 00000000000000000000000000000000000000000                              000000000000000
202603020110000100000000000000000069                8000000000020307667410BELOTTI DIEGO PABLO           000000118750927000000000000000000000000000000000000000000000000000000000000000000000000000000000000000000000000000000000PES00010000000 00000000000000000000000000000000000000000                              000000000000000
202603020010000200000000000000000077                8000000000030718180879MEGALOG S. R. L.              000000467416729000000000000000000000000000000000000000000000000000000000000000000000000000000000000000000000000000000000PES00010000001 00000008112191200000000000000000000000000                              000000000000000
202603020010000200000000000000000557                8000000000020290129746AUCAR JORGE MAURO             000000144633002000000000000000000000000000000000000000000000000000000000000000000000000000000000000000000000000000000000PES00010000001 00000002510159500000000000000000000000000                              000000000000000
202603020010000200000000000000000558                8000000000020290129746AUCAR JORGE MAURO             000000153045156000000000000000000000000000000000000000000000000000000000000000000000000000000000000000000000000000000000PES00010000001 00000002656155600000000000000000000000000                              000000000000000
202603020110000200000000000000000035                8000000000023204137579ESCUDERO FERNANDO             000000202636833000000000000000000000000000000000000000000000000000000000000000000000000000000000000000000000000000000000PES00010000000 00000000000000000000000000000000000000000                              000000000000000
202603020110000200000000000000000048                8000000000020333025214MANCHARIS IVAN EZEQUIEL       000000101499000000000000000000000000000000000000000000000000000000000000000000000000000000000000000000000000000000000000PES00010000000 00000000000000000000000000000000000000000                              000000000000000
202603020110000200000000000000000052                8000000000020308089240ARCE JUAN MANUEL              000000024059056000000000000000000000000000000000000000000000000000000000000000000000000000000000000000000000000000000000PES00010000000 00000000000000000000000000000000000000000                              000000000000000
202603020110000200000000000000000056                8000000000020294470744LENCINA DANTE ARIEL           000000098229279000000000000000000000000000000000000000000000000000000000000000000000000000000000000000000000000000000000PES00010000000 00000000000000000000000000000000000000000                              000000000000000
202603020110000200000000000000000110                8000000000027307604723MARENGO MARIA NOELIA          000000037758198000000000000000000000000000000000000000000000000000000000000000000000000000000000000000000000000000000000PES00010000000 00000000000000000000000000000000000000000                              000000000000000
202603020110000200000000000000002327                8000000000027169840445QUINTANA ROSA ELIZABETH       000000004170000000000000000000000000000000000000000000000000000000000000000000000000000000000000000000000000000000000000PES00010000000 00000000000000000000000000000000000000000                              000000000000000
202603020110000400000000000000000278                8000000000027312099441MEZA ELENA ESTHER             000000010481080000000000000000000000000000000000000000000000000000000000000000000000000000000000000000000000000000000000PES00010000000 00000000000000000000000000000000000000000                              000000000000000
202603030110000100000000000000000020                8000000000027185032111SCAROLA FABIANA ANDREA        000000008265448000000000000000000000000000000000000000000000000000000000000000000000000000000000000000000000000000000000PES00010000000 00000000000000000000000000000000000000000                              000000000000000
202603030110000100000000000000000020                8000000000027230463447FLORES MARIA MARCELA          000000020916800000000000000000000000000000000000000000000000000000000000000000000000000000000000000000000000000000000000PES00010000000 00000000000000000000000000000000000000000                              000000000000000
202603030110000100000000000000000035                8000000000020170049625FIGUEROA CLAUDIO LUIS         000000005171839000000000000000000000000000000000000000000000000000000000000000000000000000000000000000000000000000000000PES00010000000 00000000000000000000000000000000000000000                              000000000000000
202603030110000100000000000000000038                8000000000020468371597JAEGGI KEVIN JEREMIAS         000000091578886000000000000000000000000000000000000000000000000000000000000000000000000000000000000000000000000000000000PES00010000000 00000000000000000000000000000000000000000                              000000000000000
202603030110000100000000000000000064                8000000000027469706023COLACRAI DELFINA              000000093149698000000000000000000000000000000000000000000000000000000000000000000000000000000000000000000000000000000000PES00010000000 00000000000000000000000000000000000000000                              000000000000000
202603030110000100000000000000000074                8000000000020236221882LOPEZ MARIANO MARTIN          000000050773312000000000000000000000000000000000000000000000000000000000000000000000000000000000000000000000000000000000PES00010000000 00000000000000000000000000000000000000000                              000000000000000
202603030110000100000000000000000099                8000000000020251348317OLIVA RIQUELME MARCOS ANTONIO 000000090873016000000000000000000000000000000000000000000000000000000000000000000000000000000000000000000000000000000000PES00010000000 00000000000000000000000000000000000000000                              000000000000000
202603030110000100000000000000000399                8000000000020299917828GIORDANO GERARDO LUIS         000000017606900000000000000000000000000000000000000000000000000000000000000000000000000000000000000000000000000000000000PES00010000000 00000000000000000000000000000000000000000                              000000000000000
202603030110000100000000000000000400                8000000000020299917828GIORDANO GERARDO LUIS         000000016908700000000000000000000000000000000000000000000000000000000000000000000000000000000000000000000000000000000000PES00010000000 00000000000000000000000000000000000000000                              000000000000000
202603030010000200000000000000000735                8000000000020280344622DOMINGUEZ CLAUDIO LEONEL      000000710993580000000000000000000000000000000000000000000000000000000000000000000000000000000000000000000000000000000000PES00010000001 00000012339558000000000000000000000000000                              000000000000000
202603030110000200000000000000000068                8000000000020303571338FRIAS SPUCHES DANIEL SEBASTIAN000000058710336000000000000000000000000000000000000000000000000000000000000000000000000000000000000000000000000000000000PES00010000000 00000000000000000000000000000000000000000                              000000000000000
202603030110000200000000000000000071                8000000000020312439108CASORATI MARIO NICOLAS        000000053718342000000000000000000000000000000000000000000000000000000000000000000000000000000000000000000000000000000000PES00010000000 00000000000000000000000000000000000000000                              000000000000000
202603030110000200000000000000000268                8000000000023220917649BRUNI ARIEL JOSE              000000019150882000000000000000000000000000000000000000000000000000000000000000000000000000000000000000000000000000000000PES00010000000 00000000000000000000000000000000000000000                              000000000000000
202603030110000200000000000000000364                8000000000020118990685CANTERO GUILLERMO             000000067259063000000000000000000000000000000000000000000000000000000000000000000000000000000000000000000000000000000000PES00010000000 00000000000000000000000000000000000000000                              000000000000000
202603030110000200000000000000000966                8000000000023146609074CORONEL NORA ESTELA           000000017917472000000000000000000000000000000000000000000000000000000000000000000000000000000000000000000000000000000000PES00010000000 00000000000000000000000000000000000000000                              000000000000000
202603030110000300000000000000000003                8000000000020440240063HOSENEN MAURICIO ABEL         000000098714477000000000000000000000000000000000000000000000000000000000000000000000000000000000000000000000000000000000PES00010000000 00000000000000000000000000000000000000000                              000000000000000
202603030110000300000000000000000069                8000000000023257154149PUSTERLA HENRY HUGO           000000019869000000000000000000000000000000000000000000000000000000000000000000000000000000000000000000000000000000000000PES00010000000 00000000000000000000000000000000000000000                              000000000000000
202603030010000400000000000000033452                8000000000030715078410PLAY GAME S.R.L.              000000011459968000000000000000000000000000000000000000000000000000000000000000000000000000000000000000000000000000000000PES00010000001 00000000198892000000000000000000000000000                              000000000000000
202603030010000500000000000000000077                8000000000020330308746ALDERETE MIGUEL ANGEL         000000097161790000000000000000000000000000000000000000000000000000000000000000000000000000000000000000000000000000000000PES00010000001 00000001686279000000000000000000000000000                              000000000000000
202603030010000500000000000000029844                8000000000020207631656MEMMO FABIAN LUIS             000000006600000000000000000000000000000000000000000000000000000000000000000000000000000000000000000000000000000000000000PES00010000001 00000000114545500000000000000000000000000                              000000000000000
202603030010000800000000000000005868                8000000000030715447343LATIN DOMO SRL                000000006074663000000000000000000000000000000000000000000000000000000000000000000000000000000000000000000000000000000000PES00010000001 00000000105428000000000000000000000000000                              000000000000000
202603030010202600000000000000000052                8000000000030715699865VALYRIA SRL                   000000010240000000000000000000000000000000000000000000000000000000000000000000000000000000000000000000000000000000000000PES00010000001 00000000177719000000000000000000000000000                              000000000000000
202603030030498000000000000000045145                8000000000030639453738TELECOM ARGENTINA SOCIEDAD ANO000000000160000000000000000000000000000000000000000000000000000000000000000000000000000000000000000000000000000000000000PES00010000001 00000000002776900000000000000000000000000                              000000000000000
202603040110000100000000000000000001                8000000000027344954009AGUILAR YAMILA FLORENCIA      000000071062188000000000000000000000000000000000000000000000000000000000000000000000000000000000000000000000000000000000PES00010000000 00000000000000000000000000000000000000000                              000000000000000
202603040110000100000000000000000001                8000000000027943460774TABOADA APAZA AMALIA          000000080043000000000000000000000000000000000000000000000000000000000000000000000000000000000000000000000000000000000000PES00010000000 00000000000000000000000000000000000000000                              000000000000000
202603040110000100000000000000000012                8000000000027300598981GEREZ SANDRA ELISABET         000000012627416000000000000000000000000000000000000000000000000000000000000000000000000000000000000000000000000000000000PES00010000000 00000000000000000000000000000000000000000                              000000000000000
202603040110000100000000000000000014                8000000000020214288584GUZMAN HUGO EZEQUIEL          000000059800079000000000000000000000000000000000000000000000000000000000000000000000000000000000000000000000000000000000PES00010000000 00000000000000000000000000000000000000000                              000000000000000
202603040110000100000000000000000020                8000000000020287702923PONCE RAMOS JUAN CARLOS       000000023968200000000000000000000000000000000000000000000000000000000000000000000000000000000000000000000000000000000000PES00010000000 00000000000000000000000000000000000000000                              000000000000000
202603040110000100000000000000000026                8000000000020243197539GARAY NELSON DANIEL           000000031429906000000000000000000000000000000000000000000000000000000000000000000000000000000000000000000000000000000000PES00010000000 00000000000000000000000000000000000000000                              000000000000000
202603040110000100000000000000000035                8000000000027322473201MARTINEZ BETINA ELIANA        000000081654000000000000000000000000000000000000000000000000000000000000000000000000000000000000000000000000000000000000PES00010000000 00000000000000000000000000000000000000000                              000000000000000
202603040110000100000000000000000044                8000000000020390713348FIGUEROA IGNACIO NICOLAS      000000022736315000000000000000000000000000000000000000000000000000000000000000000000000000000000000000000000000000000000PES00010000000 00000000000000000000000000000000000000000                              000000000000000
202603040110000100000000000000000107                8000000000020416559350GONZALEZ TOMAS ALEJANDRO JEREM000000061020285000000000000000000000000000000000000000000000000000000000000000000000000000000000000000000000000000000000PES00010000000 00000000000000000000000000000000000000000                              000000000000000
202603040110000100000000000000000108                8000000000020416559350GONZALEZ TOMAS ALEJANDRO JEREM000000081858248000000000000000000000000000000000000000000000000000000000000000000000000000000000000000000000000000000000PES00010000000 00000000000000000000000000000000000000000                              000000000000000
202603040010000200000000000000000077                8000000000020301020652BENITEZ GERMAN RODRIGO        000000503640883000000000000000000000000000000000000000000000000000000000000000000000000000000000000000000000000000000000PES00010000001 00000008740874800000000000000000000000000                              000000000000000
202603040010000200000000000000000078                8000000000020301020652BENITEZ GERMAN RODRIGO        000000632304695000000000000000000000000000000000000000000000000000000000000000000000000000000000000000000000000000000000PES00010000001 00000010973883100000000000000000000000000                              000000000000000
202603040010000200000000000000005692                8000000000020165439849PINTO RUBEN DANIEL            000000006050000000000000000000000000000000000000000000000000000000000000000000000000000000000000000000000000000000000000PES00010000001 00000000105000000000000000000000000000000                              000000000000000
202603040110000200000000000000000025                8000000000020388309335VERA MAXIMILIANO JOAQUIN      000000090283035000000000000000000000000000000000000000000000000000000000000000000000000000000000000000000000000000000000PES00010000000 00000000000000000000000000000000000000000                              000000000000000
202603040110000200000000000000000046                8000000000027260311404BLANCO IRENE MARGARITA        000000118153000000000000000000000000000000000000000000000000000000000000000000000000000000000000000000000000000000000000PES00010000000 00000000000000000000000000000000000000000                              000000000000000
202603040010000400000000000000047746                8000000000030715109650EQUIPO MEDICO DE EMERGENCIAS C000000003630000000000000000000000000000000000000000000000000000000000000000000000000000000000000000000000000000000000000PES00010000001 00000000063000000000000000000000000000000                              000000000000000
202603040010000500000000000000000376                8000000000020278037399ZOTES DIEGO CESAR             000000075936634000000000000000000000000000000000000000000000000000000000000000000000000000000000000000000000000000000000PES00010000001 00000001317908500000000000000000000000000                              000000000000000
202603050010000100000000000000004040                8000000000027180224934GONZALEZ MARIA MERCEDES       000000004150000000000000000000000000000000000000000000000000000000000000000000000000000000000000000000000000000000000000PES00010000001 00000000072024800000000000000000000000000                              000000000000000
202603050110000100000000000000000002                8000000000020260882059BLAZQUEZ DIEGO LUIS           000000010000000000000000000000000000000000000000000000000000000000000000000000000000000000000000000000000000000000000000PES00010000000 00000000000000000000000000000000000000000                              000000000000000
202603050110000100000000000000000022                8000000000020210944517BRIONES JORGE OSCAR           000000022303286000000000000000000000000000000000000000000000000000000000000000000000000000000000000000000000000000000000PES00010000000 00000000000000000000000000000000000000000                              000000000000000
202603050110000100000000000000000099                8000000000020314576390ACUAVOTTA ALBERTO MARTIN      000000111918548000000000000000000000000000000000000000000000000000000000000000000000000000000000000000000000000000000000PES00010000000 00000000000000000000000000000000000000000                              000000000000000
202603050110000100000000000000000111                8000000000020322287500DUARTE CRISTIAN JOAQUIN       000000044487144000000000000000000000000000000000000000000000000000000000000000000000000000000000000000000000000000000000PES00010000000 00000000000000000000000000000000000000000                              000000000000000
202603050130000100000000000000000001                8000000000020309535228VILLEGAS ANGEL DAVID          000000012413520000000000000000000000000000000000000000000000000000000000000000000000000000000000000000000000000000000000PES00010000000 00000000000000000000000000000000000000000                              000000000000000
202603050130000100000000000000000010                8000000000027322473201MARTINEZ BETINA ELIANA        000000016851307000000000000000000000000000000000000000000000000000000000000000000000000000000000000000000000000000000000PES00010000000 00000000000000000000000000000000000000000                              000000000000000
202603050110000200000000000000000012                8000000000027333931872PLATINO NATALIA ALEJANDRA     000000103955539000000000000000000000000000000000000000000000000000000000000000000000000000000000000000000000000000000000PES00010000000 00000000000000000000000000000000000000000                              000000000000000
202603050110000200000000000000000013                8000000000020335254504STRAMBI HERNAN DARIO          000000046578053000000000000000000000000000000000000000000000000000000000000000000000000000000000000000000000000000000000PES00010000000 00000000000000000000000000000000000000000                              000000000000000
202603050110000300000000000000000064                8000000000023326523879MONLA PASUT EXEQUIEL ORLANDO  000000046319426000000000000000000000000000000000000000000000000000000000000000000000000000000000000000000000000000000000PES00010000000 00000000000000000000000000000000000000000                              000000000000000
202603050010000400000000000000001121                8000000000020334378706BLANCO JOSE RICARDO           000000002999021000000000000000000000000000000000000000000000000000000000000000000000000000000000000000000000000000000000PES00010000001 00000000052049100000000000000000000000000                              000000000000000
202603050110000400000000000000000080                8000000000020317924926SANTARCANGELO LUIS EMMANUEL   000000100780100000000000000000000000000000000000000000000000000000000000000000000000000000000000000000000000000000000000PES00010000000 00000000000000000000000000000000000000000                              000000000000000
202603050010012400000000000000003058                8000000000030708790598LA ALEMANA S.R.L.             000000003490660000000000000000000000000000000000000000000000000000000000000000000000000000000000000000000000000000000000PES00010000002 00000000042912200000000000000000000000000                              000000000000000
202603060110000100000000000000000030                8000000000020329205887PENTA FLAVIO ANDRES           000000104065900000000000000000000000000000000000000000000000000000000000000000000000000000000000000000000000000000000000PES00010000000 00000000000000000000000000000000000000000                              000000000000000
202603060110000100000000000000000061                8000000000020294021702MORAN EZEQUIEL GUILLERMO      000000021238029000000000000000000000000000000000000000000000000000000000000000000000000000000000000000000000000000000000PES00010000000 00000000000000000000000000000000000000000                              000000000000000
202603060110000100000000000000000062                8000000000020294021702MORAN EZEQUIEL GUILLERMO      000000043348340000000000000000000000000000000000000000000000000000000000000000000000000000000000000000000000000000000000PES00010000000 00000000000000000000000000000000000000000                              000000000000000
202603060110000200000000000000000057                8000000000020321256466LACORTE ADRIAN ROBERTO        000000045074309000000000000000000000000000000000000000000000000000000000000000000000000000000000000000000000000000000000PES00010000000 00000000000000000000000000000000000000000                              000000000000000
202603060110000200000000000000000102                8000000000020238891532MOJICA SERGIO DANIEL          000000183732871000000000000000000000000000000000000000000000000000000000000000000000000000000000000000000000000000000000PES00010000000 00000000000000000000000000000000000000000                              000000000000000
202603060110000200000000000000000182                8000000000027329376589CEPARO CARLA ELISABET         000000069464356000000000000000000000000000000000000000000000000000000000000000000000000000000000000000000000000000000000PES00010000000 00000000000000000000000000000000000000000                              000000000000000
202603060110000300000000000000000017                8000000000020338060883TARENCO CARLOS GABRIEL        000000075516147000000000000000000000000000000000000000000000000000000000000000000000000000000000000000000000000000000000PES00010000000 00000000000000000000000000000000000000000                              000000000000000
202603070110000100000000000000000041                8000000000020296864499ESTRADA NICOLAS EDGARDO       000000092163665000000000000000000000000000000000000000000000000000000000000000000000000000000000000000000000000000000000PES00010000000 00000000000000000000000000000000000000000                              000000000000000
202603080110000100000000000000000043                8000000000020250024674CIZ ARIEL DARIO               000000157429838000000000000000000000000000000000000000000000000000000000000000000000000000000000000000000000000000000000PES00010000000 00000000000000000000000000000000000000000                              000000000000000
202603090110000100000000000000000002                8000000000020474449220POBLETE OVIEDO RODRIGO URIEL  000000025601428000000000000000000000000000000000000000000000000000000000000000000000000000000000000000000000000000000000PES00010000000 00000000000000000000000000000000000000000                              000000000000000
202603090110000100000000000000000003                8000000000027438588359BECERRA PAULA NATASHA         000000073771078000000000000000000000000000000000000000000000000000000000000000000000000000000000000000000000000000000000PES00010000000 00000000000000000000000000000000000000000                              000000000000000
202603090110000100000000000000000005                8000000000020337249702OLIVEIRA GERMAN FEDERICO MARTI000000014127265000000000000000000000000000000000000000000000000000000000000000000000000000000000000000000000000000000000PES00010000000 00000000000000000000000000000000000000000                              000000000000000
202603090110000100000000000000000017                8000000000020325666065BENITEZ HECTOR OSCAR          000000002281804000000000000000000000000000000000000000000000000000000000000000000000000000000000000000000000000000000000PES00010000000 00000000000000000000000000000000000000000                              000000000000000
202603090110000100000000000000000018                8000000000027260059152ESPINOSA ELISABET JUDITH      000000022771481000000000000000000000000000000000000000000000000000000000000000000000000000000000000000000000000000000000PES00010000000 00000000000000000000000000000000000000000                              000000000000000
202603090110000100000000000000000022                8000000000027250797074JAIMES ANALIA VERONICA        000000116091946000000000000000000000000000000000000000000000000000000000000000000000000000000000000000000000000000000000PES00010000000 00000000000000000000000000000000000000000                              000000000000000
202603090110000100000000000000000030                8000000000020277706718SANCHEZ DAMIAN DE JESUS       000000161663299000000000000000000000000000000000000000000000000000000000000000000000000000000000000000000000000000000000PES00010000000 00000000000000000000000000000000000000000                              000000000000000
202603090110000100000000000000000030                8000000000027272288696HAAG MELINA BEATRIZ           000000094094869000000000000000000000000000000000000000000000000000000000000000000000000000000000000000000000000000000000PES00010000000 00000000000000000000000000000000000000000                              000000000000000
202603090110000100000000000000000035                8000000000020448728316PATRON MAXIMO OSCAR           000000064113688000000000000000000000000000000000000000000000000000000000000000000000000000000000000000000000000000000000PES00010000000 00000000000000000000000000000000000000000                              000000000000000
202603090110000100000000000000000036                8000000000020448728316PATRON MAXIMO OSCAR           000000064113688000000000000000000000000000000000000000000000000000000000000000000000000000000000000000000000000000000000PES00010000000 00000000000000000000000000000000000000000                              000000000000000
202603090110000100000000000000000042                8000000000023404241443ELENO ALEJO                   000000104329489000000000000000000000000000000000000000000000000000000000000000000000000000000000000000000000000000000000PES00010000000 00000000000000000000000000000000000000000                              000000000000000
202603090110000100000000000000000043                8000000000023404241443ELENO ALEJO                   000000139159169000000000000000000000000000000000000000000000000000000000000000000000000000000000000000000000000000000000PES00010000000 00000000000000000000000000000000000000000                              000000000000000
202603090110000100000000000000000049                8000000000020166813000LABEGUERE ADOLFO OMAR         000000082971904000000000000000000000000000000000000000000000000000000000000000000000000000000000000000000000000000000000PES00010000000 00000000000000000000000000000000000000000                              000000000000000
202603090010000200000000000000001588                8000000000020348910648LOPEZ ANDRES MARTIN           000000000500000000000000000000000000000000000000000000000000000000000000000000000000000000000000000000000000000000000000PES00010000001 00000000008677700000000000000000000000000                              000000000000000
202603090110000200000000000000000008                8000000000027238204408BOH GLADYS NOEMI              000000111036092000000000000000000000000000000000000000000000000000000000000000000000000000000000000000000000000000000000PES00010000000 00000000000000000000000000000000000000000                              000000000000000
202603090110000200000000000000000014                8000000000020259500789SOSA EDGAR ALBERTO            000000092232211000000000000000000000000000000000000000000000000000000000000000000000000000000000000000000000000000000000PES00010000000 00000000000000000000000000000000000000000                              000000000000000
202603090110000200000000000000000036                8000000000027319953480AGUILAR MELISA ALEJANDRA      000000039452855000000000000000000000000000000000000000000000000000000000000000000000000000000000000000000000000000000000PES00010000000 00000000000000000000000000000000000000000                              000000000000000
202603090110000200000000000000000058                8000000000020321256466LACORTE ADRIAN ROBERTO        000000008305732000000000000000000000000000000000000000000000000000000000000000000000000000000000000000000000000000000000PES00010000000 00000000000000000000000000000000000000000                              000000000000000
202603090110000200000000000000000111                8000000000020176730820GOMEZ FABIO DOMINGO           000000042568583000000000000000000000000000000000000000000000000000000000000000000000000000000000000000000000000000000000PES00010000000 00000000000000000000000000000000000000000                              000000000000000
202603090010000300000000000000000069                8000000000027321907593VERA KARINA ELIZABETH         000000068554300000000000000000000000000000000000000000000000000000000000000000000000000000000000000000000000000000000000PES00010000001 00000001189785400000000000000000000000000                              000000000000000
202603090110000300000000000000000004                8000000000020440240063HOSENEN MAURICIO ABEL         000000081326764000000000000000000000000000000000000000000000000000000000000000000000000000000000000000000000000000000000PES00010000000 00000000000000000000000000000000000000000                              000000000000000
202603090390202600000000000026030911                8000000000030709447846INDUSTRIAL AND COMMERCIAL BANK000000172547945000000000000000000000000000000000000000000000000000000000000000000000000000000000000000000000000012947042PES00010000001 00000001516569600000000000000000000000000                              000000000000000
202603100010000100000000000000000447                8000000000020279153309LACUNZA MATIAS IGNACIO        000000010709528000000000000000000000000000000000000000000000000000000000000000000000000000000000000000000000000000000000PES00010000001 00000000185867800000000000000000000000000                              000000000000000
202603100110000100000000000000000002                8000000000027943460774TABOADA APAZA AMALIA          000000132236500000000000000000000000000000000000000000000000000000000000000000000000000000000000000000000000000000000000PES00010000000 00000000000000000000000000000000000000000                              000000000000000
202603100110000100000000000000000004                8000000000027201064266SANCHEZ NOEMI ALICIA          000000069228775000000000000000000000000000000000000000000000000000000000000000000000000000000000000000000000000000000000PES00010000000 00000000000000000000000000000000000000000                              000000000000000
202603100110000100000000000000000005                8000000000027201064266SANCHEZ NOEMI ALICIA          000000061514305000000000000000000000000000000000000000000000000000000000000000000000000000000000000000000000000000000000PES00010000000 00000000000000000000000000000000000000000                              000000000000000
202603100110000100000000000000000013                8000000000027300598981GEREZ SANDRA ELISABET         000000015847775000000000000000000000000000000000000000000000000000000000000000000000000000000000000000000000000000000000PES00010000000 00000000000000000000000000000000000000000                              000000000000000
202603100110000100000000000000000016                8000000000020321288813ARCE LEONEL GASTON            000000021327969000000000000000000000000000000000000000000000000000000000000000000000000000000000000000000000000000000000PES00010000000 00000000000000000000000000000000000000000                              000000000000000
202603100110000100000000000000000021                8000000000020201481873AGUILAR LEANDRO JAVIER CEFERIN000000090547415000000000000000000000000000000000000000000000000000000000000000000000000000000000000000000000000000000000PES00010000000 00000000000000000000000000000000000000000                              000000000000000
202603100110000100000000000000000027                8000000000020344534595GOMEZ MATIAS GERMAN           000000041566258000000000000000000000000000000000000000000000000000000000000000000000000000000000000000000000000000000000PES00010000000 00000000000000000000000000000000000000000                              000000000000000
202603100110000100000000000000000028                8000000000020344534595GOMEZ MATIAS GERMAN           000000057307172000000000000000000000000000000000000000000000000000000000000000000000000000000000000000000000000000000000PES00010000000 00000000000000000000000000000000000000000                              000000000000000
202603100110000100000000000000000037                8000000000020208227042AGUIRRE DANIEL GUADALUPE      000000060392209000000000000000000000000000000000000000000000000000000000000000000000000000000000000000000000000000000000PES00010000000 00000000000000000000000000000000000000000                              000000000000000
202603100110000100000000000000000042                8000000000020343993154MARTOS MARCOS LEONEL          000000086649521000000000000000000000000000000000000000000000000000000000000000000000000000000000000000000000000000000000PES00010000000 00000000000000000000000000000000000000000                              000000000000000
202603100110000100000000000000000043                8000000000020343993154MARTOS MARCOS LEONEL          000000010371054000000000000000000000000000000000000000000000000000000000000000000000000000000000000000000000000000000000PES00010000000 00000000000000000000000000000000000000000                              000000000000000
202603100110000100000000000000000047                8000000000027313266074GIMENEZ CINTIA LIA SOLEDAD    000000031147600000000000000000000000000000000000000000000000000000000000000000000000000000000000000000000000000000000000PES00010000000 00000000000000000000000000000000000000000                              000000000000000
202603100110000100000000000000000048                8000000000027313266074GIMENEZ CINTIA LIA SOLEDAD    000000062496200000000000000000000000000000000000000000000000000000000000000000000000000000000000000000000000000000000000PES00010000000 00000000000000000000000000000000000000000                              000000000000000
202603100110000100000000000000000064                8000000000020377975716ERBETTA JUAN CRUZ             000000024234228000000000000000000000000000000000000000000000000000000000000000000000000000000000000000000000000000000000PES00010000000 00000000000000000000000000000000000000000                              000000000000000
202603100110000100000000000000000112                8000000000020368662934ARTAZA ALAN MAURICIO          000000161795375000000000000000000000000000000000000000000000000000000000000000000000000000000000000000000000000000000000PES00010000000 00000000000000000000000000000000000000000                              000000000000000
202603100110000100000000000000000222                8000000000020319114816SAINZ JAVIER FERNANDO         000000005000000000000000000000000000000000000000000000000000000000000000000000000000000000000000000000000000000000000000PES00010000000 00000000000000000000000000000000000000000                              000000000000000
202603100110000200000000000000000028                8000000000020167931325MORALES NORBERTO ENRIQUE      000000097013624000000000000000000000000000000000000000000000000000000000000000000000000000000000000000000000000000000000PES00010000000 00000000000000000000000000000000000000000                              000000000000000
202603100110000200000000000000000038                8000000000020263562195RICCI HORACIO GABRIEL         000000080673698000000000000000000000000000000000000000000000000000000000000000000000000000000000000000000000000000000000PES00010000000 00000000000000000000000000000000000000000                              000000000000000
202603100110000200000000000000000144                8000000000020260726448HERZOG NICOLAS                000000093374476000000000000000000000000000000000000000000000000000000000000000000000000000000000000000000000000000000000PES00010000000 00000000000000000000000000000000000000000                              000000000000000
202603100110000200000000000000000191                8000000000020171524238CUELLO NESTOR RUBEN           000000135378088000000000000000000000000000000000000000000000000000000000000000000000000000000000000000000000000000000000PES00010000000 00000000000000000000000000000000000000000                              000000000000000
202603100110000200000000000000000365                8000000000020118990685CANTERO GUILLERMO             000000039839185000000000000000000000000000000000000000000000000000000000000000000000000000000000000000000000000000000000PES00010000000 00000000000000000000000000000000000000000                              000000000000000
202603100110000200000000000000001147                8000000000020305964965AVILA ENRIQUE OMAR            000000045962317000000000000000000000000000000000000000000000000000000000000000000000000000000000000000000000000000000000PES00010000000 00000000000000000000000000000000000000000                              000000000000000
202603100390000600000000000007291611                8000000000030574816870AMERICAN EXPRESS ARGENTINA S. 000000152429550000000000000000000000000000000000000000000000000000000000000000000000000000000000000000000000000143281950PES00010000001 00000000158760000000000000000000000000000                              000000000000000
202603110010000100000000000000000252                8000000000027134219586REM LINDA ELENA               000000292078076000000000000000000000000000000000000000000000000000000000000000000000000000000000000000000000000000000000PES00010000001 00000005069123600000000000000000000000000                              000000000000000
202603110110000100000000000000000017                8000000000020413659974CHAIRA VALENCIA ARIEL JORGE   000000222780500000000000000000000000000000000000000000000000000000000000000000000000000000000000000000000000000000000000PES00010000000 00000000000000000000000000000000000000000                              000000000000000
202603110110000100000000000000000018                8000000000023350222529DI LORENZO SEBASTIAN CELSO    000000033326061000000000000000000000000000000000000000000000000000000000000000000000000000000000000000000000000000000000PES00010000000 00000000000000000000000000000000000000000                              000000000000000
202603110110000100000000000000000022                8000000000020452648947GOMEZ THIAGO NAHUEL           000000109694000000000000000000000000000000000000000000000000000000000000000000000000000000000000000000000000000000000000PES00010000000 00000000000000000000000000000000000000000                              000000000000000
202603110110000100000000000000000034                8000000000020138544673ERBETTA JORGE ALBERTO         000000035765120000000000000000000000000000000000000000000000000000000000000000000000000000000000000000000000000000000000PES00010000000 00000000000000000000000000000000000000000                              000000000000000
202603110110000100000000000000000035                8000000000020334685358MASSIMIANI NICOLAS ESTEBAN    000000044800299000000000000000000000000000000000000000000000000000000000000000000000000000000000000000000000000000000000PES00010000000 00000000000000000000000000000000000000000                              000000000000000
202603110110000100000000000000000036                8000000000027322473201MARTINEZ BETINA ELIANA        000000064285072000000000000000000000000000000000000000000000000000000000000000000000000000000000000000000000000000000000PES00010000000 00000000000000000000000000000000000000000                              000000000000000
202603110110000100000000000000000052                8000000000027357213571CUELLAR ANABEL YOHANA         000000017956300000000000000000000000000000000000000000000000000000000000000000000000000000000000000000000000000000000000PES00010000000 00000000000000000000000000000000000000000                              000000000000000
202603110110000100000000000000000100                8000000000020251348317OLIVA RIQUELME MARCOS ANTONIO 000000105480353000000000000000000000000000000000000000000000000000000000000000000000000000000000000000000000000000000000PES00010000000 00000000000000000000000000000000000000000                              000000000000000
202603110110000100000000000000000101                8000000000020251348317OLIVA RIQUELME MARCOS ANTONIO 000000079060015000000000000000000000000000000000000000000000000000000000000000000000000000000000000000000000000000000000PES00010000000 00000000000000000000000000000000000000000                              000000000000000
202603110110000100000000000000000401                8000000000020299917828GIORDANO GERARDO LUIS         000000010865800000000000000000000000000000000000000000000000000000000000000000000000000000000000000000000000000000000000PES00010000000 00000000000000000000000000000000000000000                              000000000000000
202603110130000100000000000000000002                8000000000020214288584GUZMAN HUGO EZEQUIEL          000000001093143000000000000000000000000000000000000000000000000000000000000000000000000000000000000000000000000000000000PES00010000000 00000000000000000000000000000000000000000                              000000000000000
202603110130000100000000000000000007                8000000000020368662934ARTAZA ALAN MAURICIO          000000000200000000000000000000000000000000000000000000000000000000000000000000000000000000000000000000000000000000000000PES00010000000 00000000000000000000000000000000000000000                              000000000000000
202603110010000200000000000000002919                8000000000020336200726RODRIGUEZ JORGE MARIANO       000000306537528000000000000000000000000000000000000000000000000000000000000000000000000000000000000000000000000000000000PES00010000001 00000005320072800000000000000000000000000                              000000000000000
202603110110000200000000000000000004                8000000000020288809756YOSIA PABLO ADRIAN            000000218597680000000000000000000000000000000000000000000000000000000000000000000000000000000000000000000000000000000000PES00010000000 00000000000000000000000000000000000000000                              000000000000000
202603110110000200000000000000000035                8000000000020238120390RODRIGUEZ RICARDO JAVIER      000000073074178000000000000000000000000000000000000000000000000000000000000000000000000000000000000000000000000000000000PES00010000000 00000000000000000000000000000000000000000                              000000000000000
202603110110000200000000000000000057                8000000000020294470744LENCINA DANTE ARIEL           000000082124628000000000000000000000000000000000000000000000000000000000000000000000000000000000000000000000000000000000PES00010000000 00000000000000000000000000000000000000000                              000000000000000
202603110110000200000000000000000078                8000000000027321853779MASSIMIANI MARIA EVANGELINA   000000046817949000000000000000000000000000000000000000000000000000000000000000000000000000000000000000000000000000000000PES00010000000 00000000000000000000000000000000000000000                              000000000000000
202603110130000200000000000000000006                8000000000020345948083PALAVECINO RICARDO CLAUDIO FAB000000009856511000000000000000000000000000000000000000000000000000000000000000000000000000000000000000000000000000000000PES00010000000 00000000000000000000000000000000000000000                              000000000000000
202603110110000300000000000000000010                8000000000020369832078CARPENTIERI ANGEL VICENTE     000000009263670000000000000000000000000000000000000000000000000000000000000000000000000000000000000000000000000000000000PES00010000000 00000000000000000000000000000000000000000                              000000000000000
202603110110000300000000000000000061                8000000000020304192780MILLON TELLO ANDRES MARTIN RAU000000060886007000000000000000000000000000000000000000000000000000000000000000000000000000000000000000000000000000000000PES00010000000 00000000000000000000000000000000000000000                              000000000000000
202603110110000400000000000000000050                8000000000020257029574MARTINEZ LEANDRO ADRIAN       000000019426808000000000000000000000000000000000000000000000000000000000000000000000000000000000000000000000000000000000PES00010000000 00000000000000000000000000000000000000000                              000000000000000
202603110010000700000000000000014684                8000000000030716292319NEPTUN CORP SA                000000132999833000000000000000000000000000000000000000000000000000000000000000000000000000000000000000000000000000000000PES00010000001 00000001263799300000000000000000000000000                              000000000000000
202603110110000900000000000000000057                8000000000020285336989RUEDA GUILLERMO JOSE          000000080926500000000000000000000000000000000000000000000000000000000000000000000000000000000000000000000000000000000000PES00010000000 00000000000000000000000000000000000000000                              000000000000000
202603110010012400000000000000003073                8000000000030708790598LA ALEMANA S.R.L.             000000003419160000000000000000000000000000000000000000000000000000000000000000000000000000000000000000000000000000000000PES00010000002 00000000041671300000000000000000000000000                              000000000000000
202603120110000100000000000000000003                8000000000020260882059BLAZQUEZ DIEGO LUIS           000000010000000000000000000000000000000000000000000000000000000000000000000000000000000000000000000000000000000000000000PES00010000000 00000000000000000000000000000000000000000                              000000000000000
202603120110000100000000000000000004                8000000000020427034179ACUŃA GABRIEL NICOLAS         000000159597162000000000000000000000000000000000000000000000000000000000000000000000000000000000000000000000000000000000PES00010000000 00000000000000000000000000000000000000000                              000000000000000
202603120110000100000000000000000004                8000000000027438588359BECERRA PAULA NATASHA         000000060169944000000000000000000000000000000000000000000000000000000000000000000000000000000000000000000000000000000000PES00010000000 00000000000000000000000000000000000000000                              000000000000000
202603120110000100000000000000000014                8000000000020188204806ZORRILLA SANCHEZ FERMIN REINER000000057134604000000000000000000000000000000000000000000000000000000000000000000000000000000000000000000000000000000000PES00010000000 00000000000000000000000000000000000000000                              000000000000000
202603120110000100000000000000000015                8000000000023360548139MIRANDA JONATAN RUBEN         000000006921542000000000000000000000000000000000000000000000000000000000000000000000000000000000000000000000000000000000PES00010000000 00000000000000000000000000000000000000000                              000000000000000
202603120110000100000000000000000032                8000000000020401009206MEDINA MAXIMILIANO RUBEN      000000119377553000000000000000000000000000000000000000000000000000000000000000000000000000000000000000000000000000000000PES00010000000 00000000000000000000000000000000000000000                              000000000000000
202603120110000200000000000000000112                8000000000020176730820GOMEZ FABIO DOMINGO           000000037955748000000000000000000000000000000000000000000000000000000000000000000000000000000000000000000000000000000000PES00010000000 00000000000000000000000000000000000000000                              000000000000000
202603120110000200000000000000000967                8000000000023146609074CORONEL NORA ESTELA           000000044564629000000000000000000000000000000000000000000000000000000000000000000000000000000000000000000000000000000000PES00010000000 00000000000000000000000000000000000000000                              000000000000000
202603120110000500000000000000000023                8000000000020414106782LENIS TOMAS AGUSTIN           000000075271032000000000000000000000000000000000000000000000000000000000000000000000000000000000000000000000000000000000PES00010000000 00000000000000000000000000000000000000000                              000000000000000
202603120010252400000000000000202942                8000000000030708574836CORREO OFICIAL DE LA REPUBLICA000000002150000000000002115000000000000000000000000000000000000000000000000000000000000000000000000000000000000000000000PES00010000001 00000000000607400000000000000000000000000                              000000000000000
202603130110000100000000000000000028                8000000000020243197539GARAY NELSON DANIEL           000000013978720000000000000000000000000000000000000000000000000000000000000000000000000000000000000000000000000000000000PES00010000000 00000000000000000000000000000000000000000                              000000000000000
202603130110000100000000000000000045                8000000000020330441950CINCUNEGUI GASTON EMMANUEL    000000016942166000000000000000000000000000000000000000000000000000000000000000000000000000000000000000000000000000000000PES00010000000 00000000000000000000000000000000000000000                              000000000000000
202603130110000100000000000000000099                8000000000020283353444BORDON GUSTAVO RAUL           000000131778328000000000000000000000000000000000000000000000000000000000000000000000000000000000000000000000000000000000PES00010000000 00000000000000000000000000000000000000000                              000000000000000
202603130010000200000000000000000082                8000000000030718180879MEGALOG S. R. L.              000000462241180000000000000000000000000000000000000000000000000000000000000000000000000000000000000000000000000000000000PES00010000001 00000008022367600000000000000000000000000                              000000000000000
202603130110000400000000000000000021                8000000000027236975415BOCHIO LAURA ANDREA           000000066793800000000000000000000000000000000000000000000000000000000000000000000000000000000000000000000000000000000000PES00010000000 00000000000000000000000000000000000000000                              000000000000000
202603130010001100000000000000000005                8000000000020345394339GOITIA SALAZAR SERGIO FROILAN 000000042081473000000000000000000000000000000000000000000000000000000000000000000000000000000000000000000000000000000000PES00010000001 00000000730339600000000000000000000000000                              000000000000000
202603140110000100000000000000000020                8000000000020465869896SANCHEZ JOSUE ANGEL           000000086576265000000000000000000000000000000000000000000000000000000000000000000000000000000000000000000000000000000000PES00010000000 00000000000000000000000000000000000000000                              000000000000000
202603140110000200000000000000000968                8000000000023146609074CORONEL NORA ESTELA           000000006228776000000000000000000000000000000000000000000000000000000000000000000000000000000000000000000000000000000000PES00010000000 00000000000000000000000000000000000000000                              000000000000000
202603150110000200000000000000000009                8000000000020271875151BRITOS JUAN PABLO             000000059006919000000000000000000000000000000000000000000000000000000000000000000000000000000000000000000000000000000000PES00010000000 00000000000000000000000000000000000000000                              000000000000000
202603150110000400000000000000000001                8000000000023349093359PIETRAS MATIAS DANIEL         000000012734222000000000000000000000000000000000000000000000000000000000000000000000000000000000000000000000000000000000PES00010000000 00000000000000000000000000000000000000000                              000000000000000
202603150110000400000000000000000002                8000000000023349093359PIETRAS MATIAS DANIEL         000000011486451000000000000000000000000000000000000000000000000000000000000000000000000000000000000000000000000000000000PES00010000000 00000000000000000000000000000000000000000                              000000000000000
202603150010000900000000000001176875                8000000000030628455518NOSIS LABORATORIO DE INVESTIGA000000017306751000000000000000000000000000000000000000000000000000000000000000000000000000000000000000000000000000000000PES00010000001 00000000300365100000000000000000000000000                              000000000000000
202603150010142000000000000000090507                8000000000030546689979YPF SOCIEDAD ANONIMA          000001072937148000000000000000000000000000000000000021564838000000000000000000000021971461000000000000000000000159619581PES00010000001 00000015095377400000000000000000000000000                              000000000000000
202603150010142000000000000000090516                8000000000030546689979YPF SOCIEDAD ANONIMA          000000070569756000000000000000000000000000000000000001608253000000000000000000000000985013000000000000000000000003110353PES00010000001 00000001125775900000000000000000000000000                              000000000000000
202603160010000100000000000000000254                8000000000027134219586REM LINDA ELENA               000000263804297000000000000000000000000000000000000000000000000000000000000000000000000000000000000000000000000000000000PES00010000001 00000004578421700000000000000000000000000                              000000000000000
202603160110000100000000000000000003                8000000000027943460774TABOADA APAZA AMALIA          000000149986500000000000000000000000000000000000000000000000000000000000000000000000000000000000000000000000000000000000PES00010000000 00000000000000000000000000000000000000000                              000000000000000
202603160110000100000000000000000020                8000000000023219028369MONTENEGRO WALTER MARCELO     000000211184029000000000000000000000000000000000000000000000000000000000000000000000000000000000000000000000000000000000PES00010000000 00000000000000000000000000000000000000000                              000000000000000
202603160110000100000000000000000023                8000000000020210944517BRIONES JORGE OSCAR           000000021457682000000000000000000000000000000000000000000000000000000000000000000000000000000000000000000000000000000000PES00010000000 00000000000000000000000000000000000000000                              000000000000000
202603160110000100000000000000000039                8000000000020418342367GALARZA EMILIANO ESTEBAN      000000172133855000000000000000000000000000000000000000000000000000000000000000000000000000000000000000000000000000000000PES00010000000 00000000000000000000000000000000000000000                              000000000000000
202603160110000100000000000000000039                8000000000020468371597JAEGGI KEVIN JEREMIAS         000000147274050000000000000000000000000000000000000000000000000000000000000000000000000000000000000000000000000000000000PES00010000000 00000000000000000000000000000000000000000                              000000000000000
202603160110000100000000000000000131                8000000000027399776649DEL BUONO NOHAN               000000065223500000000000000000000000000000000000000000000000000000000000000000000000000000000000000000000000000000000000PES00010000000 00000000000000000000000000000000000000000                              000000000000000
202603160110000100000000000000000793                8000000000027429304801PUMETTI CANOSA SOFIA MARIA LAR000000029125300000000000000000000000000000000000000000000000000000000000000000000000000000000000000000000000000000000000PES00010000000 00000000000000000000000000000000000000000                              000000000000000
202603160110000100000000000000017837                8000000000020369486307GONZALEZ GUIDO LUCIANO        000000003500000000000000000000000000000000000000000000000000000000000000000000000000000000000000000000000000000000000000PES00010000000 00000000000000000000000000000000000000000                              000000000000000
202603160130000100000000000000000001                8000000000020396897661CANEVARI GALO RAMIRO MANUEL   000000012039156000000000000000000000000000000000000000000000000000000000000000000000000000000000000000000000000000000000PES00010000000 00000000000000000000000000000000000000000                              000000000000000
202603160110000200000000000000000014                8000000000020335254504STRAMBI HERNAN DARIO          000000141288550000000000000000000000000000000000000000000000000000000000000000000000000000000000000000000000000000000000PES00010000000 00000000000000000000000000000000000000000                              000000000000000
202603160110000200000000000000000053                8000000000020308089240ARCE JUAN MANUEL              000000041839815000000000000000000000000000000000000000000000000000000000000000000000000000000000000000000000000000000000PES00010000000 00000000000000000000000000000000000000000                              000000000000000
202603160110000200000000000000000055                8000000000027216141763GONZALEZ BUSTAMANTE LUCILA MAB000000012695456000000000000000000000000000000000000000000000000000000000000000000000000000000000000000000000000000000000PES00010000000 00000000000000000000000000000000000000000                              000000000000000
202603160110000200000000000000000113                8000000000027307604723MARENGO MARIA NOELIA          000000032459496000000000000000000000000000000000000000000000000000000000000000000000000000000000000000000000000000000000PES00010000000 00000000000000000000000000000000000000000                              000000000000000
202603160110000200000000000000000114                8000000000027307604723MARENGO MARIA NOELIA          000000000740784000000000000000000000000000000000000000000000000000000000000000000000000000000000000000000000000000000000PES00010000000 00000000000000000000000000000000000000000                              000000000000000
202603160110000200000000000000000192                8000000000020171524238CUELLO NESTOR RUBEN           000000118377745000000000000000000000000000000000000000000000000000000000000000000000000000000000000000000000000000000000PES00010000000 00000000000000000000000000000000000000000                              000000000000000
202603160110000200000000000000001149                8000000000020305964965AVILA ENRIQUE OMAR            000000143962213000000000000000000000000000000000000000000000000000000000000000000000000000000000000000000000000000000000PES00010000000 00000000000000000000000000000000000000000                              000000000000000
202603160010000700000000000000006577                8000000000030671335127INTERFOR SRL                  000000014500000000000000000000000000001550000000000000000000000000000000000000000000000000000000000000000000000000000000PES00010000001 00000000224752100000000000000000000000000                              000000000000000
202603170010000100000000000000000552                8000000000023359021879FERNANDEZ HORACIO ANTONIO     000000045750873000000000000000000000000000000000000000000000000000000000000000000000000000000000000000000000000000000000PES00010000001 00000000794023400000000000000000000000000                              000000000000000
202603170010000100000000000000010107                8000000000030716804972TRANSPORTES LEILA SAS         000000850822390000000000000000000000000000000000000000000000000000000000000000000000000000000000000000000000000000000000PES00010000001 00000014766339000000000000000000000000000                              000000000000000
202603170010000100000000000000010108                8000000000030716804972TRANSPORTES LEILA SAS         000000729241590000000000000000000000000000000000000000000000000000000000000000000000000000000000000000000000000000000000PES00010000001 00000012656259000000000000000000000000000                              000000000000000
202603170110000100000000000000000006                8000000000020309265085DIANA DAMIAN ARIEL            000000071488970000000000000000000000000000000000000000000000000000000000000000000000000000000000000000000000000000000000PES00010000000 00000000000000000000000000000000000000000                              000000000000000
202603170110000100000000000000000027                8000000000020281269136NAVARRO GERMAN CESAR EDUARDO  000000023100000000000000000000000000000000000000000000000000000000000000000000000000000000000000000000000000000000000000PES00010000000 00000000000000000000000000000000000000000                              000000000000000
202603170110000100000000000000000086                8000000000020279625065MOLINA JUAREZ JOSE FEDERICO   000000012396552000000000000000000000000000000000000000000000000000000000000000000000000000000000000000000000000000000000PES00010000000 00000000000000000000000000000000000000000                              000000000000000
202603170110000100000000000000000100                8000000000020283353444BORDON GUSTAVO RAUL           000000127007726000000000000000000000000000000000000000000000000000000000000000000000000000000000000000000000000000000000PES00010000000 00000000000000000000000000000000000000000                              000000000000000
202603170110000100000000000000000156                8000000000027311198942PEREYRA ANDREA CAROLINA       000000016124596000000000000000000000000000000000000000000000000000000000000000000000000000000000000000000000000000000000PES00010000000 00000000000000000000000000000000000000000                              000000000000000
202603170110000200000000000000000026                8000000000020388309335VERA MAXIMILIANO JOAQUIN      000000031080994000000000000000000000000000000000000000000000000000000000000000000000000000000000000000000000000000000000PES00010000000 00000000000000000000000000000000000000000                              000000000000000
202603170110000200000000000000000027                8000000000027375773223QUINTANA ANABELA KAREN        000000068941889000000000000000000000000000000000000000000000000000000000000000000000000000000000000000000000000000000000PES00010000000 00000000000000000000000000000000000000000                              000000000000000
202603170110000200000000000000000400                8000000000020321885269BATTAUZ DIEGO ANTONIO         000000186928324000000000000000000000000000000000000000000000000000000000000000000000000000000000000000000000000000000000PES00010000000 00000000000000000000000000000000000000000                              000000000000000
202603170010000500000000000000000078                8000000000020330308746ALDERETE MIGUEL ANGEL         000000184545691000000000000000000000000000000000000000000000000000000000000000000000000000000000000000000000000000000000PES00010000001 00000003202859100000000000000000000000000                              000000000000000
202603170110000600000000000000000008                8000000000020380399432SCHRODER FERNANDO HERNAN      000000058536576000000000000000000000000000000000000000000000000000000000000000000000000000000000000000000000000000000000PES00010000000 00000000000000000000000000000000000000000                              000000000000000
202603180010000100000000000000000449                8000000000020279153309LACUNZA MATIAS IGNACIO        000000017284879000000000000000000000000000000000000000000000000000000000000000000000000000000000000000000000000000000000PES00010000001 00000000299985500000000000000000000000000                              000000000000000
202603180110000100000000000000000001                8000000000027162613885ALMIRALL NORMA BEATRIZ        000000010000000000000000000000000000000000000000000000000000000000000000000000000000000000000000000000000000000000000000PES00010000000 00000000000000000000000000000000000000000                              000000000000000
202603180110000100000000000000000003                8000000000020402548992LARDIES LUCAS NAHUEL          000000096473782000000000000000000000000000000000000000000000000000000000000000000000000000000000000000000000000000000000PES00010000000 00000000000000000000000000000000000000000                              000000000000000
202603180110000100000000000000000019                8000000000020363533109VITOLO LEONARDO GABRIEL       000000052225900000000000000000000000000000000000000000000000000000000000000000000000000000000000000000000000000000000000PES00010000000 00000000000000000000000000000000000000000                              000000000000000
202603180110000100000000000000000020                8000000000023350222529DI LORENZO SEBASTIAN CELSO    000000106418980000000000000000000000000000000000000000000000000000000000000000000000000000000000000000000000000000000000PES00010000000 00000000000000000000000000000000000000000                              000000000000000
202603180110000100000000000000000021                8000000000023350222529DI LORENZO SEBASTIAN CELSO    000000120000000000000000000000000000000000000000000000000000000000000000000000000000000000000000000000000000000000000000PES00010000000 00000000000000000000000000000000000000000                              000000000000000
202603180110000100000000000000000022                8000000000023350222529DI LORENZO SEBASTIAN CELSO    000000060300000000000000000000000000000000000000000000000000000000000000000000000000000000000000000000000000000000000000PES00010000000 00000000000000000000000000000000000000000                              000000000000000
202603180110000100000000000000000024                8000000000020287622237BLOTTA RAMON ERNESTO          000000063168700000000000000000000000000000000000000000000000000000000000000000000000000000000000000000000000000000000000PES00010000000 00000000000000000000000000000000000000000                              000000000000000
202603180110000100000000000000000031                8000000000027272288696HAAG MELINA BEATRIZ           000000053821299000000000000000000000000000000000000000000000000000000000000000000000000000000000000000000000000000000000PES00010000000 00000000000000000000000000000000000000000                              000000000000000
202603180110000100000000000000000040                8000000000027190655402ESCOBAR GODOY JESSICA KARINA  000000137607118000000000000000000000000000000000000000000000000000000000000000000000000000000000000000000000000000000000PES00010000000 00000000000000000000000000000000000000000                              000000000000000
202603180110000100000000000000000050                8000000000020166813000LABEGUERE ADOLFO OMAR         000000050511136000000000000000000000000000000000000000000000000000000000000000000000000000000000000000000000000000000000PES00010000000 00000000000000000000000000000000000000000                              000000000000000
202603180110000100000000000000000075                8000000000020236221882LOPEZ MARIANO MARTIN          000000086538158000000000000000000000000000000000000000000000000000000000000000000000000000000000000000000000000000000000PES00010000000 00000000000000000000000000000000000000000                              000000000000000
202603180110000100000000000000000102                8000000000020251348317OLIVA RIQUELME MARCOS ANTONIO 000000043832895000000000000000000000000000000000000000000000000000000000000000000000000000000000000000000000000000000000PES00010000000 00000000000000000000000000000000000000000                              000000000000000
202603180110000100000000000000000109                8000000000020416559350GONZALEZ TOMAS ALEJANDRO JEREM000000151260967000000000000000000000000000000000000000000000000000000000000000000000000000000000000000000000000000000000PES00010000000 00000000000000000000000000000000000000000                              000000000000000
202603180110000100000000000000000110                8000000000020416559350GONZALEZ TOMAS ALEJANDRO JEREM000000131945500000000000000000000000000000000000000000000000000000000000000000000000000000000000000000000000000000000000PES00010000000 00000000000000000000000000000000000000000                              000000000000000
202603180110000200000000000000000043                8000000000020292160225AGUILAR ROBERTO CARLOS        000000058019000000000000000000000000000000000000000000000000000000000000000000000000000000000000000000000000000000000000PES00010000000 00000000000000000000000000000000000000000                              000000000000000
202603180110000200000000000000000103                8000000000020238891532MOJICA SERGIO DANIEL          000000167785555000000000000000000000000000000000000000000000000000000000000000000000000000000000000000000000000000000000PES00010000000 00000000000000000000000000000000000000000                              000000000000000
202603180110000200000000000000000104                8000000000020238891532MOJICA SERGIO DANIEL          000000117005791000000000000000000000000000000000000000000000000000000000000000000000000000000000000000000000000000000000PES00010000000 00000000000000000000000000000000000000000                              000000000000000
202603180110000300000000000000000085                8000000000023181292059SANDOVAL GENARO ARNOLDO       000000046475385000000000000000000000000000000000000000000000000000000000000000000000000000000000000000000000000000000000PES00010000000 00000000000000000000000000000000000000000                              000000000000000
202603180010001900000000000000000028                8000000000030716010917ALBO DISTRIBUCIONES S.A.      000000914791101000000000000000000000000000000000000000000000000000000000000000000000000000000000000000000000000000000000PES00010000001 00000015876539800000000000000000000000000                              000000000000000
202603190110000100000000000000000001                8000000000020437214639PEREYRA GONZALO ALEJANDRO     000000024287668000000000000000000000000000000000000000000000000000000000000000000000000000000000000000000000000000000000PES00010000000 00000000000000000000000000000000000000000                              000000000000000
202603190110000100000000000000000005                8000000000020418341417RAPANELLI LUCIANO DAVID       000000110762040000000000000000000000000000000000000000000000000000000000000000000000000000000000000000000000000000000000PES00010000000 00000000000000000000000000000000000000000                              000000000000000
202603190110000100000000000000000046                8000000000020285005060LOPEZ SERGIO AUGUSTO          000000024631435000000000000000000000000000000000000000000000000000000000000000000000000000000000000000000000000000000000PES00010000000 00000000000000000000000000000000000000000                              000000000000000
202603190110000100000000000000000048                8000000000020265946942TREJO MATIAS                  000000198195042000000000000000000000000000000000000000000000000000000000000000000000000000000000000000000000000000000000PES00010000000 00000000000000000000000000000000000000000                              000000000000000
202603190110000100000000000000000061                8000000000020950212080CASTRO MOLLO ROBERTO CARLOS   000000078339195000000000000000000000000000000000000000000000000000000000000000000000000000000000000000000000000000000000PES00010000000 00000000000000000000000000000000000000000                              000000000000000
202603190110000100000000000000000402                8000000000020299917828GIORDANO GERARDO LUIS         000000051128200000000000000000000000000000000000000000000000000000000000000000000000000000000000000000000000000000000000PES00010000000 00000000000000000000000000000000000000000                              000000000000000
202603190110000100000000000000000403                8000000000020299917828GIORDANO GERARDO LUIS         000000048327300000000000000000000000000000000000000000000000000000000000000000000000000000000000000000000000000000000000PES00010000000 00000000000000000000000000000000000000000                              000000000000000
202603190110000200000000000000000270                8000000000023220917649BRUNI ARIEL JOSE              000000039582633000000000000000000000000000000000000000000000000000000000000000000000000000000000000000000000000000000000PES00010000000 00000000000000000000000000000000000000000                              000000000000000
202603190110000300000000000000000039                8000000000027213406650GONZALEZ MIRIAM YOLANDA       000000056861800000000000000000000000000000000000000000000000000000000000000000000000000000000000000000000000000000000000PES00010000000 00000000000000000000000000000000000000000                              000000000000000
202603190010001700000000000000000104                8000000000030716010917ALBO DISTRIBUCIONES S.A.      000000835746999000000000000000000000000000000000000000000000000000000000000000000000000000000000000000000000000000000000PES00010000001 00000014504700000000000000000000000000000                              000000000000000
202603200110000100000000000000000003                8000000000023272505209PACHECO JUAN JOSE             000000009263670000000000000000000000000000000000000000000000000000000000000000000000000000000000000000000000000000000000PES00010000000 00000000000000000000000000000000000000000                              000000000000000
202603200110000100000000000000000006                8000000000027472827036ZUŃIGA GAJARDO VALENTINA AILEN000000066580973000000000000000000000000000000000000000000000000000000000000000000000000000000000000000000000000000000000PES00010000000 00000000000000000000000000000000000000000                              000000000000000
202603200110000100000000000000000015                8000000000020214288584GUZMAN HUGO EZEQUIEL          000000034085331000000000000000000000000000000000000000000000000000000000000000000000000000000000000000000000000000000000PES00010000000 00000000000000000000000000000000000000000                              000000000000000
202603200110000100000000000000000019                8000000000027260059152ESPINOSA ELISABET JUDITH      000000018315945000000000000000000000000000000000000000000000000000000000000000000000000000000000000000000000000000000000PES00010000000 00000000000000000000000000000000000000000                              000000000000000
202603200110000100000000000000000023                8000000000027250797074JAIMES ANALIA VERONICA        000000066831546000000000000000000000000000000000000000000000000000000000000000000000000000000000000000000000000000000000PES00010000000 00000000000000000000000000000000000000000                              000000000000000
202603200110000100000000000000000039                8000000000020448728316PATRON MAXIMO OSCAR           000000052956344000000000000000000000000000000000000000000000000000000000000000000000000000000000000000000000000000000000PES00010000000 00000000000000000000000000000000000000000                              000000000000000
202603200110000100000000000000000044                8000000000027215526149ANDRADE MARIA CRISTINA        000000124598000000000000000000000000000000000000000000000000000000000000000000000000000000000000000000000000000000000000PES00010000000 00000000000000000000000000000000000000000                              000000000000000
202603200110000200000000000000000012                8000000000020353517814VILLA LUCAS MAXIMILIANO       000000008861670000000000000000000000000000000000000000000000000000000000000000000000000000000000000000000000000000000000PES00010000000 00000000000000000000000000000000000000000                              000000000000000
202603200110000200000000000000000039                8000000000020263562195RICCI HORACIO GABRIEL         000000186392544000000000000000000000000000000000000000000000000000000000000000000000000000000000000000000000000000000000PES00010000000 00000000000000000000000000000000000000000                              000000000000000
202603200110000200000000000000000049                8000000000020340094469SILVA MARCELO EZEQUIEL        000000091076744000000000000000000000000000000000000000000000000000000000000000000000000000000000000000000000000000000000PES00010000000 00000000000000000000000000000000000000000                              000000000000000
202603200810000400000000000000003899                8000000000020273960946BUSELLATO NESTOR FABIAN       000000000820947000000000000000000000000000000000000000000000000000000000000000000000000000000000000000000000000000000000PES00010000001 00000000014247800000000000000000000000000                              000000000000000
202603200010001700000000000000000105                8000000000030716010917ALBO DISTRIBUCIONES S.A.      000000716532000000000000000000000000000000000000000000000000000000000000000000000000000000000000000000000000000000000000PES00010000001 00000012435679300000000000000000000000000                              000000000000000
202603200010001900000000000000000029                8000000000030716010917ALBO DISTRIBUCIONES S.A.      000000726532001000000000000000000000000000000000000000000000000000000000000000000000000000000000000000000000000000000000PES00010000001 00000012609233100000000000000000000000000                              000000000000000
202603210110000400000000000000000082                8000000000020317924926SANTARCANGELO LUIS EMMANUEL   000000115352800000000000000000000000000000000000000000000000000000000000000000000000000000000000000000000000000000000000PES00010000000 00000000000000000000000000000000000000000                              000000000000000
202603220110000200000000000000000075                8000000000020312439108CASORATI MARIO NICOLAS        000000006840038000000000000000000000000000000000000000000000000000000000000000000000000000000000000000000000000000000000PES00010000000 00000000000000000000000000000000000000000                              000000000000000
202603220010001000000000000000164760                8000000000030628455518NOSIS LABORATORIO DE INVESTIGA000000018150000000000000000000000000000000000000000000000000000000000000000000000000000000000000000000000000000000000000PES00010000001 00000000315000000000000000000000000000000                              000000000000000
202603230110000100000000000000000004                8000000000020260882059BLAZQUEZ DIEGO LUIS           000000010000000000000000000000000000000000000000000000000000000000000000000000000000000000000000000000000000000000000000PES00010000000 00000000000000000000000000000000000000000                              000000000000000
202603230110000100000000000000000023                8000000000020452648947GOMEZ THIAGO NAHUEL           000000124516400000000000000000000000000000000000000000000000000000000000000000000000000000000000000000000000000000000000PES00010000000 00000000000000000000000000000000000000000                              000000000000000
202603230110000100000000000000000041                8000000000027190655402ESCOBAR GODOY JESSICA KARINA  000000017999432000000000000000000000000000000000000000000000000000000000000000000000000000000000000000000000000000000000PES00010000000 00000000000000000000000000000000000000000                              000000000000000
202603230110000100000000000000000044                8000000000020250024674CIZ ARIEL DARIO               000000167227628000000000000000000000000000000000000000000000000000000000000000000000000000000000000000000000000000000000PES00010000000 00000000000000000000000000000000000000000                              000000000000000
202603230110000100000000000000000100                8000000000020314576390ACUAVOTTA ALBERTO MARTIN      000000035340385000000000000000000000000000000000000000000000000000000000000000000000000000000000000000000000000000000000PES00010000000 00000000000000000000000000000000000000000                              000000000000000
202603230110000200000000000000000009                8000000000027238204408BOH GLADYS NOEMI              000000089153457000000000000000000000000000000000000000000000000000000000000000000000000000000000000000000000000000000000PES00010000000 00000000000000000000000000000000000000000                              000000000000000
202603230110000200000000000000000037                8000000000027319953480AGUILAR MELISA ALEJANDRA      000000061923420000000000000000000000000000000000000000000000000000000000000000000000000000000000000000000000000000000000PES00010000000 00000000000000000000000000000000000000000                              000000000000000
202603230110000300000000000000000019                8000000000020338060883TARENCO CARLOS GABRIEL        000000071315825000000000000000000000000000000000000000000000000000000000000000000000000000000000000000000000000000000000PES00010000000 00000000000000000000000000000000000000000                              000000000000000
202603230110000300000000000000000033                8000000000020424213927SILVA JOSE FRANCISCO          000000036652600000000000000000000000000000000000000000000000000000000000000000000000000000000000000000000000000000000000PES00010000000 00000000000000000000000000000000000000000                              000000000000000
202603230010001700000000000000000106                8000000000030716010917ALBO DISTRIBUCIONES S.A.      000000623150000000000000000000000000000000000000000000000000000000000000000000000000000000000000000000000000000000000000PES00010000001 00000010815000000000000000000000000000000                              000000000000000
202603230010001800000000000000000042                8000000000030716010917ALBO DISTRIBUCIONES S.A.      000000967099000000000000000000000000000000000000000000000000000000000000000000000000000000000000000000000000000000000000PES00010000001 00000016784362800000000000000000000000000                              000000000000000
202603230010001800000000000000000043                8000000000030716010917ALBO DISTRIBUCIONES S.A.      000000617100000000000000000000000000000000000000000000000000000000000000000000000000000000000000000000000000000000000000PES00010000001 00000010710000000000000000000000000000000                              000000000000000
202603230010001800000000000000000045                8000000000030716010917ALBO DISTRIBUCIONES S.A.      000000599049000000000000000000000000000000000000000000000000000000000000000000000000000000000000000000000000000000000000PES00010000001 00000010396718200000000000000000000000000                              000000000000000
202603240110000100000000000000000015                8000000000023281863789BURGI RUBEN ADRIAN            000000050747800000000000000000000000000000000000000000000000000000000000000000000000000000000000000000000000000000000000PES00010000000 00000000000000000000000000000000000000000                              000000000000000
202603240110000100000000000000000016                8000000000023281863789BURGI RUBEN ADRIAN            000000006817253000000000000000000000000000000000000000000000000000000000000000000000000000000000000000000000000000000000PES00010000000 00000000000000000000000000000000000000000                              000000000000000
202603240110000100000000000000000017                8000000000023281863789BURGI RUBEN ADRIAN            000000016229093000000000000000000000000000000000000000000000000000000000000000000000000000000000000000000000000000000000PES00010000000 00000000000000000000000000000000000000000                              000000000000000
202603240110000100000000000000000036                8000000000020334685358MASSIMIANI NICOLAS ESTEBAN    000000032561428000000000000000000000000000000000000000000000000000000000000000000000000000000000000000000000000000000000PES00010000000 00000000000000000000000000000000000000000                              000000000000000
202603240110000100000000000000000070                8000000000023379162029FARIAS HUGO NICOLAS           000000133921216000000000000000000000000000000000000000000000000000000000000000000000000000000000000000000000000000000000PES00010000000 00000000000000000000000000000000000000000                              000000000000000
202603240010000200000000000000000070                8000000000020315711208JAIMES RENE HERNAN            000000177114360000000000000000000000000000000000000000000000000000000000000000000000000000000000000000000000000000000000PES00010000001 00000003073885600000000000000000000000000                              000000000000000
202603240110000200000000000000000029                8000000000020167931325MORALES NORBERTO ENRIQUE      000000080503981000000000000000000000000000000000000000000000000000000000000000000000000000000000000000000000000000000000PES00010000000 00000000000000000000000000000000000000000                              000000000000000
202603240110000200000000000000000058                8000000000020294470744LENCINA DANTE ARIEL           000000089263252000000000000000000000000000000000000000000000000000000000000000000000000000000000000000000000000000000000PES00010000000 00000000000000000000000000000000000000000                              000000000000000
